:020000040800F2
:1000000060050020010100082527000811250008CF
:10001000212700086D010008CD2E00080000000017
:10002000000000000000000000000000D5270008CC
:100030007101000800000000952700082D28000825
:100040001B0100081B0100081B0100081B01000820
:100050001B0100081B0100081B0100081B01000810
:100060001B0100081B0100081B0100081B01000800
:100070001B0100081B0100081B0100081B010008F0
:100080001B0100081B0100081B0100081B010008E0
:100090001B0100081B0100081B0100081B010008D0
:1000A0001B0100081B0100081B0100081B010008C0
:1000B000A52800081B0100081B0100081B010008FF
:1000C0001B0100081B0100081B0100081B010008A0
:1000D0001B010008BD2E00081B0100081B010008C1
:1000E0001B0100081B0100081B010008DFF80CD0F1
:1000F00000F02AF800480047912F00086005002012
:100100000648804706480047FEE7FEE7FEE7FEE7B1
:10011000FEE7FEE7FEE7FEE7FEE7FEE7A1280008B0
:10012000ED000008D2B201E000F8012B491EFBD21D
:1001300070470022F6E710B513460A4604461946F2
:10014000FFF7F0FF204610BD064C074D06E0E068C3
:1001500040F0010394E8070098471034AC42F6D30E
:10016000FFF7C8FFE830000808310008FFE7FEE7A6
:100170007047000081B0EFF3108072B60090FFE787
:10018000FEE7000083B0019000208DF80300019885
:1001900090F8210002280DD0FFE701990420886320
:1001A000FFE70199002081F82000FFE701208DF88A
:1001B0000B0021E001980168086820F00E0008603B
:1001C00001980168086820F0010008600198C16B7F
:1001D000026C012090404860FFE70199012081F8FE
:1001E0002100FFE70199002081F82000FFE79DF83A
:1001F00003008DF80B00FFE79DF80B0003B070477C
:1002000080B588B0079000208DF81B00079890F803
:100210002100022807D0FFE7079904208863012006
:100220008DF81B0076E007980168086820F00E0042
:10023000086007980168086820F0010008600798C6
:1002400000680821C4F20201884203D1FFE70120BF
:10025000059047E0079800681C21C4F2020188421B
:1002600003D1FFE71020049039E00798006830219F
:10027000C4F20201884204D1FFE74FF4807003907A
:100280002AE0079800684421C4F20201884204D1A0
:10029000FFE74FF4805002901BE007980068582158
:1002A000C4F20201884204D1FFE74FF4803001908C
:1002B0000CE0079801686C22C4F202024FF08070D3
:1002C000914208BF4FF480100190FFE7019802901F
:1002D000FFE702980390FFE703980490FFE7049874
:1002E0000590FFE705980421C4F202010860079910
:1002F000012081F82100FFE70799002081F8200004
:10030000FFE70798406B20B1FFE70798416B8847EC
:10031000FFE7FFE79DF81B0008B080BD81B00090AB
:100320000098806B01B0704790B00F900E91002044
:100330000D900990FFE70E9800680D99C8400028BD
:1003400000F07F81FFE70D99012088400C900E9806
:1003500000680C9908400B900B980C99884240F06B
:100360006C81FFE70E9840680590002851D0FFE7A8
:10037000059801283AD0FFE7059802283FD0FFE70B
:10038000059803285FD0FFE70598112832D0FFE7D2
:100390000598122838D0FFE705980021C1F2110115
:1003A000884236D0FFE705980021C1F21201884249
:1003B0002FD0FFE705980021C1F22101884228D003
:1003C000FFE705980021C1F22201884221D0FFE712
:1003D00005980021C1F2310188421AD0FFE7059843
:1003E0000021C1F23201884213D02FE00E98C0687C
:1003F00009902CE00E98C0680430099027E00E9810
:10040000C0680830099022E00E98C0680C3009904E
:100410001DE00E98806818B9FFE70420099011E0EC
:100420000E988068012806D1FFE7082009900C98F3
:100430000F99086105E0082009900C980F99486110
:10044000FFE7FFE703E00020099000E0FFE70B98DB
:10045000FF2803D8FFE70F98049003E00F980430BB
:100460000490FFE7049808900B98FF2804D8FFE752
:100470000D988000039006E00D996FF01F0000EBCF
:1004800081000390FFE70398079008980068079A97
:100490000F219140884309999140084308990860C9
:1004A0000E98C079C006002840F1C680FFE7FFE73C
:1004B00041F21800C4F20200016841F0010101603C
:1004C000006800F0010006900698FFE70D9820F004
:1004D00003000821C4F2010140580A900D9800F071
:1004E000030081000F2000FA01F10A9888430A9066
:1004F0000F9840F60001C4F20101884203D1FFE7E2
:100500000020029026E00F9840F60041C4F201015D
:10051000884203D1FFE70120019018E00F9841F2D3
:100520000001C4F20101884203D1FFE702200090DC
:100530000AE00F9941F20042C4F201020420914204
:1005400008BF03200090FFE700980190FFE70198A3
:100550000290FFE702980D9901F00301890000FA6B
:1005600001F10A9808430A900A980D9921F00301B5
:100570000822C4F2010288500E988079C006002833
:1005800009D5FFE70B9A40F20841C4F2010108685F
:100590001043086008E00B9A40F20841C4F20101E0
:1005A000086890430860FFE70E988079800600286D
:1005B00009D5FFE70B9A40F20C41C4F2010108682B
:1005C0001043086008E00B9A40F20C41C4F20101AC
:1005D000086890430860FFE70E988079800700283C
:1005E00009D5FFE70B9A40F20441C4F20101086803
:1005F0001043086008E00B9A40F20441C4F2010184
:10060000086890430860FFE70E988079C00748B1FA
:10061000FFE70B9A40F20041C4F201010868104361
:10062000086008E00B9A40F20041C4F2010108683A
:1006300090430860FFE7FFE7FFE70D9801300D905A
:1006400079E610B07047000082B00190ADF802105A
:100650008DF801209DF8010028B1FFE7BDF80200E8
:100660000199086105E0BDF80200000401990861E4
:10067000FFE702B07047000040F25810C2F20000DD
:100680000068704780B58EB00C900C9820B9FFE7D9
:1006900001208DF8370043E10C9890F83D0040B9F7
:1006A000FFE70C99002081F83C000C9800F03CF921
:1006B000FFE70C99242081F83D000C980168086838
:1006C00020F0010008600C980168086840F40040C0
:1006D00008600C980168086820F40040086000F089
:1006E0004DFB0A900C98406848F2A061C0F20101ED
:1006F00088420BD8FFE70A9948F28042C0F21E02F6
:100700000020914238BF012009900AE00A9940F682
:100710000012C0F23D020020914238BF0120099032
:10072000FFE70998012804D1FFE701208DF8370081
:10073000F6E00A984DF68361C4F21B31A0FB01106C
:10074000800C0B900C980068406820F03F000B99DB
:1007500008430C99096848600C980068006A20F00A
:100760003F0008900C98406848F2A061C0F2010177
:10077000884204D8FFE70B98013007900EE00B98F1
:100780004FF49671484344F6D351C1F26201A0FB85
:100790000101012000EB91100790FFE708980799ED
:1007A00008430C99096808620C980068C0694CF607
:1007B000FF71884306900C98406848F2A061C0F22F
:1007C000010188421FD8FFE70A9801380C9949684F
:1007D0004900B0FBF1F001306FF31F30032803D85C
:1007E000FFE7042005900BE00A9801380C9949684E
:1007F0004900B0FBF1F001306FF31F300590FFE7C7
:10080000059804904CE00C98806868B9FFE70A9856
:1008100001380C99496801EB4101B0FBF1F001305E
:100820006FF31F3003900DE00A9801380C99496866
:1008300019225143B0FBF1F00130042161F31F3064
:100840000390FFE70398000518B9FFE70120029025
:1008500023E00C98806868B9FFE70A9801380C9982
:10086000496801EB4101B0FBF1F001306FF31F303B
:1008700001900DE00A9801380C99496819225143FA
:10088000B0FBF1F00130042161F31F300190FFE76C
:10089000019840F400400290FFE702980490FFE7BF
:1008A0000698049908430C990968C8610C98006877
:1008B000006820F0C0000C9B1968DA691B6A1A43B3
:1008C000104308600C980068806848F2FF31884344
:1008D0000C9A1168D36812691A43104388600C9807
:1008E0000068C06820F0FF000C9B19685A699B697A
:1008F0001A431043C8600C980168086840F0010072
:1009000008600C99002008640C9A202182F83D10A0
:100910000C9908630C9981F83E008DF83700FFE7C9
:100920009DF837000EB080BD80B588B007900020DC
:1009300006900590049003900798006845F20041E6
:10094000C4F2000188422CD1FFE7FFE741F2180012
:10095000C4F20200016841F008010160006800F083
:10096000080002900298FFE7C02003901220049034
:100970000320069040F60040C4F2010003A9FFF7EF
:10098000D3FCFFE741F21C00C4F20200016841F40D
:1009900000110160006800F4001001900198FFE769
:1009A000FFE708B080BD000040F20800C2F200007E
:1009B000027840F25811C2F2000108681044086041
:1009C0007047000080B542F20001C4F202010868DD
:1009D00040F010000860032000F096F80F2000F0AF
:1009E00005F800F03BF8002080BD000080B582B023
:1009F000009040F20400C2F20000006840F20801DA
:100A0000C2F200010A784FF47A71B1FBF2F1B0FB47
:100A1000F1F000F02FFE20B1FFE701208DF8070074
:100A200018E000980F280DD8FFE700994FF0FF302D
:100A3000002200F04FF8009840F20C01C2F20001D1
:100A4000086003E001208DF8070003E000208DF826
:100A50000700FFE79DF8070002B080BD83B0FFE705
:100A600041F21800C4F20200016841F00101016086
:100A7000006800F0010002900298FFE7FFE741F2F2
:100A80001C00C4F20200016841F08051016000685E
:100A900000F0805001900198FFE7FFE70421C4F2C5
:100AA000010108680090009820F0E0600090009834
:100AB00040F00070009000980860FFE703B07047B6
:100AC00080B582B08DF807009DF9070002F000FAAA
:100AD00002B080BD80B586B08DF8170004910392F6
:100AE0000020029002F00CFA02909DF9170001908C
:100AF00002980499039A01F017FE0146019802F04A
:100B000007FA06B080BD000080B582B00190019860
:100B100002F020FA02B080BD80B584B0029001914D
:100B2000029820B9FFE701208DF80F001BE1019822
:100B300042F20001C4F20201096801F00701884293
:100B400016D9FFE742F20000C4F20200016821F06A
:100B50000701019A11430160006800F00700019944
:100B6000884204D0FFE701208DF80F00FBE0FFE78B
:100B700002980078800700282AD5FFE702980078BD
:100B80004007002809D5FFE741F20401C4F2020141
:100B9000086840F4E0600860FFE70298007800070A
:100BA000002809D5FFE741F20401C4F202010868F8
:100BB00040F460500860FFE741F20401C4F2020112
:100BC000086820F0F000029A926810430860FFE77E
:100BD00002980078C007002860D0FFE702984068BC
:100BE00001280ED1FFE741F20000C4F202000068C4
:100BF0008003002804D4FFE701208DF80F00B2E045
:100C000021E00298406802280ED1FFE741F200007F
:100C1000C4F2020000688001002804D4FFE701202C
:100C20008DF80F009FE00DE041F20000C4F20200D9
:100C300000688007002804D4FFE701208DF80F002A
:100C400091E0FFE7FFE741F20401C4F20201086806
:100C500020F00300029A526810430860FFF70CFD71
:100C60000090FFE741F20400C4F20200006800F0C7
:100C70000C0002994968B0EB810F0ED0FFE7FFF737
:100C8000FBFC0099401A41F28931884204D3FFE706
:100C900003208DF80F0066E0E4E7FFE7019842F2D9
:100CA0000001C4F20201096801F00701884216D26E
:100CB000FFE742F20000C4F20200016821F00701E0
:100CC000019A11430160006800F007000199884211
:100CD00004D0FFE701208DF80F0044E0FFE7029801
:100CE0000078400700280CD5FFE741F20401C4F268
:100CF0000201086820F4E060029AD268104308609C
:100D0000FFE702980078000700280DD5FFE741F2C1
:100D10000401C4F20201086820F46050029A1269CA
:100D200040EAC2000860FFE700F04CF841F204011D
:100D3000C4F202010968C9B20A0943F2BC01C0F653
:100D40000001895CC84040F20401C2F20001086061
:100D500040F20C00C2F200000068FFF747FE0020DE
:100D60008DF80F00FFE79DF80F0004B080BD000074
:100D700040F20400C2F200000068704780B5FFF73F
:100D8000F7FF41F20401C4F202010968C1F3022233
:100D900043F2CC01C0F60001895CC84080BD000070
:100DA00080B5FFF7E5FF41F20401C4F202010968D2
:100DB000C1F3C22243F2CC01C0F60001895CC840F5
:100DC00080BD000086B00020059004900390029042
:100DD000019041F20400C4F20200006805900598F9
:100DE00000F00C000146009100283FD0FFE700987A
:100DF000042804D0FFE70098082806D037E041F225
:100E00000020C0F27A00019037E00598C0F38341DA
:100E100043F2D400C0F60000405C02909DF816003A
:100E2000C007C0B1FFE741F20400C4F2020000684D
:100E3000C0F3404143F2E400C0F60000405C04907F
:100E4000029841F20021C0F27A0148430499B0FBB4
:100E5000F1F0039007E0029840F60011C0F23D0166
:100E600048430390FFE70398019006E0FFE741F253
:100E70000020C0F27A000190FFE7019806B07047A9
:100E800080B586B00490049820B9FFE701208DF862
:100E900017002EE304980078C007002800F0AE8009
:100EA000FFE741F20400C4F20200006800F00C0009
:100EB000042813D0FFE741F20400C4F202000068E6
:100EC00000F00C0008281BD1FFE741F20400C4F237
:100ED00002000068C003002812D5FFE741F20000BD
:100EE000C4F2020000688003002808D5FFE70498D8
:100EF000406820B9FFE701208DF81700F9E27CE097
:100F0000FFE704984068B0F5803F09D1FFE741F260
:100F10000001C4F20201086840F48030086032E049
:100F20000498406868B9FFE741F20001C4F2020189
:100F3000086820F480300860086820F48020086089
:100F400020E004984068B0F5A02F0DD1FFE741F2F2
:100F50000001C4F20201086840F4802008600868BB
:100F600040F4803008600CE041F20001C4F202015C
:100F7000086820F480300860086820F48020086049
:100F8000FFE7FFE7FFE7FFE704984068D0B1FFE71E
:100F9000FFF772FB0390FFE741F20000C4F202008A
:100FA0000068800300280CD4FFE7FFF765FB039976
:100FB000401A652804D3FFE703208DF8170098E254
:100FC000EAE719E0FFF758FB0390FFE741F2000062
:100FD000C4F202000068800300280CD5FFE7FFF789
:100FE0004BFB0399401A652804D3FFE703208DF8D3
:100FF00017007EE2EAE7FFE7FFE7FFE704980078E3
:101000008007002840F18D80FFE741F20400C4F220
:101010000200006810F00C0F13D0FFE741F204004B
:10102000C4F20200006800F00C00082829D1FFE794
:1010300041F20400C4F202000068C003002820D47A
:10104000FFE741F20000C4F20200006880070028B8
:1010500009D5FFE704980069012804D0FFE70120C3
:101060008DF8170045E241F20001C4F20201086860
:1010700020F0F800049A526940EAC2000860FFE7D5
:101080004EE00498006958B3FFE70021C4F2422102
:1010900001200860FFF7F0FA0390FFE741F200003B
:1010A000C4F202000068800700280CD4FFE7FFF7B5
:1010B000E3FA0399401A032804D3FFE703208DF8CD
:1010C000170016E2EAE741F20001C4F202010868E3
:1010D00020F0F800049A526940EAC20008601EE05D
:1010E0000021C4F2422100200860FFF7C5FA0390F6
:1010F000FFE741F20000C4F2020000688007002808
:101100000CD5FFE7FFF7B8FA0399401A032804D378
:10111000FFE703208DF81700EBE1EAE7FFE7FFE7C1
:10112000FFE7049800780007002848D5FFE70498F7
:10113000806918B3FFE740F28041C4F242210120E8
:101140000860FFF799FA0390FFE741F22400C4F228
:1011500002000068800700280CD4FFE7FFF78CFA34
:101160000399401A032804D3FFE703208DF81700E2
:10117000BFE1EAE7012001F00FFB1FE040F28041F0
:10118000C4F2422100200860FFF776FA0390FFE7DF
:1011900041F22400C4F202000068800700280CD548
:1011A000FFE7FFF769FA0399401A032804D3FFE722
:1011B00003208DF817009CE1EAE7FFE7FFE70498BA
:1011C00000784007002840F1D880FFE700208DF824
:1011D000070041F21C00C4F202000068C0000028B1
:1011E00013D4FFE7FFE741F21C00C4F202000168DC
:1011F00041F080510160006800F08050009000983C
:10120000FFE701208DF80700FFE747F20000C4F276
:1012100000000068C005002822D4FFE747F2000163
:10122000C4F20001086840F480700860FFF724FAF7
:101230000390FFE747F20000C4F200000068C00519
:1012400000280CD4FFE7FFF717FA0399401A652826
:1012500004D3FFE703208DF817004AE1EAE7FFE730
:10126000FFE70498C068012809D1FFE741F2200197
:10127000C4F20201086840F00100086031E00498FF
:10128000C06868B9FFE741F22001C4F202010868B2
:1012900020F001000860086820F0040008601FE0EA
:1012A0000498C06805280DD1FFE741F22001C4F27F
:1012B0000201086840F004000860086840F001007E
:1012C00008600CE041F22001C4F20201086820F03D
:1012D00001000860086820F004000860FFE7FFE7ED
:1012E000FFE7FFE70498C068E0B1FFE7FFF7C4F944
:1012F0000390FFE741F22000C4F20200006880077B
:1013000000280ED4FFE7FFF7B7F90399401A41F21E
:101310008931884204D3FFE703208DF81700E8E005
:10132000E8E71BE0FFF7A8F90390FFE741F2200090
:10133000C4F202000068800700280ED5FFE7FFF71F
:101340009BF90399401A41F28931884204D3FFE79F
:1013500003208DF81700CCE0E8E7FFE79DF80700D1
:10136000012809D1FFE741F21C01C4F2020108681B
:1013700020F080500860FFE7FFE70498C06900286C
:1013800000F0B380FFE741F20400C4F202000068FD
:1013900000F00C00082800F08280FFE70498C06984
:1013A00002285CD1FFE76021C4F2422100200860DE
:1013B000FFF762F90390FFE741F20000C4F2020078
:1013C0000068800100280CD5FFE7FFF755F9039965
:1013D000401A032804D3FFE703208DF8170088E0A4
:1013E000EAE70498006AB0F5803F0CD1FFE741F2CC
:1013F0000401C4F20201086820F40030049A9268E3
:1014000010430860FFE741F20401C4F202010868DA
:1014100020F47410049B1A6A5B6A1A431043086034
:101420006021C4F2422101200860FFF725F90390F2
:10143000FFE741F20000C4F20200006880010028CA
:101440000CD4FFE7FFF718F90399401A032804D3D7
:10145000FFE703208DF817004BE0EAE71EE060216C
:10146000C4F2422100200860FFF706F90390FFE76D
:1014700041F20000C4F202000068800100280CD58F
:10148000FFE7FFF7F9F80399401A032804D3FFE7B1
:1014900003208DF817002CE0EAE7FFE724E004982A
:1014A000C069012804D1FFE701208DF8170020E072
:1014B00041F20400C4F2020000680290029800F4B5
:1014C00080300499096A884208D1FFE7029800F445
:1014D00070100499496A884204D0FFE701208DF812
:1014E000170006E0FFE7FFE7FFE700208DF8170091
:1014F000FFE79DF8170006B080BD000080B584B0FE
:101500000290029820B9FFE701208DF80F006DE0EE
:101510000298406A60B9FFE702984068B0F5827FA0
:1015200001D1FFE703E002990020C861FFE705E071
:1015300002990020086102994861FFE702990020A2
:101540008862029890F8510040B9FFE702990020A4
:1015500081F85000029800F04DF8FFE70299022050
:1015600081F8510002980168086820F04000086086
:10157000029A019211685068D2F808C0D36800F44A
:1015800082700CF4044C604403F400631844136943
:1015900003F002031844536903F0010318449369EC
:1015A00003F400731844D36903F038031844136A32
:1015B00003F080031843926A02F40052104308605B
:1015C0000299488B00F0040009684860029801689D
:1015D000C86920F40060C861029900204865029A39
:1015E000012182F851108DF80F00FFE79DF80F00E0
:1015F00004B080BD80B588B00790002006900590AB
:10160000049003900798006843F20001C4F20101BE
:1016100088422CD1FFE7FFE741F21800C4F2020034
:10162000016841F480510160006800F4805002902C
:101630000298FFE7FFE741F21800C4F202000168D8
:1016400041F004010160006800F00400019001987D
:10165000FFE7A0200390022004900320069040F6AC
:101660000000C4F2010003A9FEF75EFEFFE708B028
:1016700080BD000080B582B00190019801F0ACF807
:1016800002B080BD81B0009001B0704781B0009081
:1016900001B0704785B003900291FFE7039890F87E
:1016A0003C00012804D1FFE702208DF813005BE025
:1016B0000399012081F83C00FFE7FFE7039902202E
:1016C00081F83D0003980068406801900398006825
:1016D00080680090019820F07000019002980168E5
:1016E000019808430190019803990968486003989C
:1016F000006842F60041C4F20101884218D0FFE7B9
:1017000003980068B0F1804F12D0FFE7039800689B
:1017100040F20041C4F20001884209D0FFE703987B
:10172000006840F60001C4F2000188420ED1FFE7D4
:10173000009820F0800000900298416800980843CB
:1017400000900098039909688860FFE703990120D9
:1017500081F83D00FFE70399002081F83C00FFE796
:1017600000208DF81300FFE79DF8130005B07047C7
:1017700080B582B00090009820B9FFE701208DF875
:1017800007003FE0009890F83D0040B9FFE700995E
:10179000002081F83C00009800F038F8FFE700993D
:1017A000022081F83D00009951F8040B01F082F805
:1017B0000099012081F84600FFE70099012081F897
:1017C0003E00009981F83F00009981F8400000999F
:1017D00081F84100FFE7FFE70099012081F842000E
:1017E000009981F84300009981F84400009981F83C
:1017F0004500FFE70099012081F83D0000208DF8A9
:101800000700FFE79DF8070002B080BD80B584B0F7
:10181000039003980068B0F1804F19D1FFE7FFE70C
:1018200041F21C00C4F20200016841F001010160B4
:10183000006800F0010002900298FFE71C20019070
:1018400000221146FFF746F90198FFF739F9FFE743
:1018500004B080BD83B00190019890F83D0001284C
:1018600004D0FFE701208DF80B0047E0019902202A
:1018700081F83D0001980168C86840F00100C86027
:101880000198006842F60041C4F20101884218D074
:10189000FFE701980068B0F1804F12D0FFE7019890
:1018A000006840F20041C4F20001884209D0FFE71D
:1018B0000198006840F60001C4F20001884212D18C
:1018C000FFE701980068806800F00700009000982A
:1018D000062807D0FFE701980168086840F001007A
:1018E0000860FFE706E001980168086840F0010021
:1018F0000860FFE700208DF80B00FFE79DF80B0064
:1019000003B0704780B586B00490039100208DF835
:101910000B00FFE7049890F83C00012804D1FFE792
:1019200002208DF81700ABE00499012081F83C00FB
:10193000FFE7FFE70499022081F83D000498006862
:1019400080680190019820F077000190019820F4C0
:101950007F400190019804990968886003980068A5
:101960000090002872D0FFE7009810286ED0FFE7A3
:10197000009820286AD0FFE70098302866D0FFE75B
:101980000098402855D0FFE70098502837D0FFE74F
:101990000098602840D0FFE7009870280BD0FFE740
:1019A0000098B0F5805F05D0FFE70098B0F5005FC4
:1019B00016D052E055E004980068039B5A68996875
:1019C000DB6800F0FBFF04980068806801900198D4
:1019D00040F077000190019804990968886040E020
:1019E00004980068039B5A689968DB6800F0E6FF7A
:1019F00004980168886840F48040886031E0049869
:101A00000068039A5168D26801F008F804980068E9
:101A1000502100F0EDFF24E004980068039A51681B
:101A2000D26801F023F804980068602100F0E0FF1C
:101A300017E004980068039A5168D26800F0EEFF3E
:101A400004980068402100F0D3FF0AE00498006881
:101A50000399096800F0CCFF03E001208DF80B002A
:101A6000FFE70499012081F83D00FFE70499002079
:101A700081F83C00FFE79DF80B008DF81700FFE7A9
:101A80009DF8170006B080BD81B0009001B070478E
:101A900080B584B0039003980068C06802900398F2
:101AA0000068006901909DF804008007002824D593
:101AB000FFE79DF80800800700281DD5FFE7039881
:101AC00001686FF00200086103990120087703980C
:101AD00000688069800720B1FFE70398FFF7D4FF13
:101AE00006E0039800F0E2F8039800F0E3F8FFE75F
:101AF000039900200877FFE7FFE79DF804004007FF
:101B0000002825D5FFE79DF80800400700281ED5CE
:101B1000FFE7039801686FF0040008610399022051
:101B2000087703980068806910F4407F04D0FFE7CD
:101B30000398FFF7A9FF06E0039800F0B7F80398B1
:101B400000F0B8F8FFE7039900200877FFE7FFE708
:101B50009DF804000007002824D5FFE79DF8080041
:101B6000000700281DD5FFE7039801686FF0080003
:101B7000086103990420087703980068C06980070A
:101B800020B1FFE70398FFF77FFF06E0039800F01E
:101B90008DF8039800F08EF8FFE70399002008778E
:101BA000FFE7FFE79DF80400C006002825D5FFE702
:101BB0009DF80800C00600281ED5FFE703980168BD
:101BC0006FF01000086103990820087703980068F7
:101BD000C06910F4407F04D0FFE70398FFF754FF7B
:101BE00006E0039800F062F8039800F063F8FFE75E
:101BF000039900200877FFE7FFE79DF80400C0077E
:101C000078B1FFE79DF80800C00748B1FFE70398E7
:101C100001686FF001000861039800F04FF8FFE7DA
:101C2000FFE79DF804000006002810D5FFE79DF8A7
:101C300008000006002809D5FFE7039801686FF047
:101C4000800008610398FFF71DFDFFE7FFE79DF89F
:101C500004004006002810D5FFE79DF80800400664
:101C6000002809D5FFE7039801686FF0400008617C
:101C7000039800F08DF8FFE7FFE79DF80400800669
:101C8000002810D5FFE79DF808008006002809D538
:101C9000FFE7039801686FF0200008610398FFF7E1
:101CA000F5FCFFE7FFE704B080BD000081B00090C5
:101CB00001B0704781B0009001B0704781B00090D2
:101CC00000980068B0F1804F5FD1FFE740F25311F8
:101CD000C2F2000108780130087040F25410C2F2DC
:101CE00000000178013101700078022837D1FFE748
:101CF00040F25411C2F200010020087040F252106C
:101D0000C2F200000178013101700078052825D168
:101D1000FFE740F25211C2F200010020087040F2C9
:101D20005110C2F2000001780131017040F211023D
:101D3000C2F200020121117000780A280DD1FFE7DC
:101D400040F25111C2F200010020087040F210016F
:101D5000C2F2000101200870FFE7FFE7FFE740F251
:101D60005310C2F20000007805280DD1FFE740F2C1
:101D70005311C2F200010020087040F25511C2F266
:101D8000000101200870FFE7FFE701B07047000085
:101D900081B0009001B0704782B00190ADF80210A0
:101DA00002B0704780B586B00490FFE7FFE7049863
:101DB000006850E8030F20F490700390FFE7039948
:101DC0000498026842E803100028F0D1FFE7FFE71B
:101DD000FFE7FFE70498006850E8050F20F00100D6
:101DE0000290FFE702990498026842E80510002873
:101DF000F0D1FFE7FFE70498006B012814D1FFE75B
:101E0000FFE7FFE70498006850E8030F20F0100098
:101E10000190FFE701990498026842E80310002846
:101E2000F0D1FFE7FFE7FFE704980068406940064C
:101E3000002832D5FFE7FFE7FFE70498006850E885
:101E4000050F20F040000090FFE700990498026819
:101E500042E805100028F0D1FFE7FFE70498C06BC7
:101E6000D0B1FFE70498C16B002048630498C06BB1
:101E7000FEF788F978B1FFE70498C06BFEF74EFAD9
:101E8000202807D1FFE704991020486403208DF82B
:101E900017000EE0FFE7FFE7FFE704990020C88581
:101EA000049A202182F84210049908638DF81700E3
:101EB000FFE79DF8170006B080BD000080B582B036
:101EC00001900198006843F60001C4F201018842C4
:101ED00010D1FFE740F20810C2F200000090FFF7B7
:101EE00061FF009840F25611C2F20001012200F099
:101EF000BFFAFFE702B080BD80B592B01190119893
:101F000000680068109011980068C0680F901198E0
:101F1000006840690E9000200D900C90109800F021
:101F20000F000D900D9888B9FFE79DF840008006DE
:101F300000280AD5FFE79DF83C008006002804D55C
:101F4000FFE7119800F02AFEE9E1FFE70D9800286D
:101F500000F0C280FFE79DF83800C00738B9FFE7FE
:101F6000BDF83C0010F4907F00F0B680FFE79DF8CC
:101F70004000C00758B1FFE79DF83D00C00730B1F1
:101F8000FFE71199486C40F001004864FFE79DF8B5
:101F90004000400700280BD5FFE79DF83800C00738
:101FA00030B1FFE71199486C40F002004864FFE748
:101FB0009DF84000800700280BD5FFE79DF838000A
:101FC000C00730B1FFE71199486C40F00400486445
:101FD000FFE79DF840000007002811D5FFE79DF8B6
:101FE0003C008006002805D4FFE79DF83800C007B4
:101FF00030B1FFE71199486C40F008004864FFE7F2
:102000001198406C002866D0FFE79DF840008006DC
:1020100000280AD5FFE79DF83C008006002804D57B
:10202000FFE7119800F0BAFDFFE7119800684069DA
:10203000C0F380100C901198406C0007002804D465
:10204000FFE70C9800283ED0FFE7119800F048FD0C
:10205000119800684069400600282FD5FFE7FFE788
:10206000FFE71198006850E8050F20F040000B9042
:10207000FFE70B991198026842E805100028F0D19B
:10208000FFE7FFE71198C06B98B1FFE71198C16BAC
:1020900042F6C120C0F6000048631198C06BFEF7FD
:1020A000AFF828B1FFE71198C06B416B8847FFE795
:1020B00003E01198FFF702FFFFE703E01198FFF735
:1020C000FDFEFFE706E01198FFF7F8FE11990020EA
:1020D0004864FFE7FFE722E11198006B012840F018
:1020E000FE80FFE79DF84000C006002840F1F78021
:1020F000FFE79DF83C00C006002840F1F080FFE7B4
:10210000FFE700200A901198006800680A90119873
:10211000006840680A900A98FFE7119800684069D3
:102120004006002840F18180FFE71198C06B0068ED
:102130004068ADF82600BDF82600002874D0FFE7FF
:10214000BDF826001199898D88426DDAFFE7BDF848
:1021500026001199C8851198C06B8069202858D035
:10216000FFE7FFE7FFE71198006850E8030F20F44E
:1021700080700890FFE708991198026842E8031000
:102180000028F0D1FFE7FFE7FFE7FFE711980068BD
:1021900050E8050F20F001000790FFE7079911981C
:1021A000026842E805100028F0D1FFE7FFE7FFE7EB
:1021B000FFE71198006850E8050F20F040000690F6
:1021C000FFE706991198026842E805100028F0D14F
:1021D000FFE7FFE71199202081F8420011990020C4
:1021E0000863FFE7FFE71198006850E8030F20F04D
:1021F00010000590FFE705991198026842E8031066
:102200000028F0D1FFE7FFE71198C06BFDF7BAFF98
:10221000FFE71199022048631198818DC28D891AB8
:1022200089B2FFF7B9FDFFE779E01199888DC98D73
:10223000401AADF812001198C08D00284ED0FFE76B
:10224000BDF81200002849D0FFE7FFE7FFE711982B
:10225000006850E8030F20F490700390FFE70399A3
:102260001198026842E803100028F0D1FFE7FFE769
:10227000FFE7FFE71198006850E8050F20F0010024
:102280000290FFE702991198026842E805100028C1
:10229000F0D1FFE7FFE71199202081F84200119962
:1022A00000200863FFE7FFE71198006850E8030F7C
:1022B00020F010000190FFE701991198026842E8B0
:1022C00003100028F0D1FFE7FFE7119902204863CF
:1022D0001198BDF81210FFF75FFDFFE71FE09DF8B2
:1022E0004000000600280AD5FFE79DF83C000006E4
:1022F000002804D5FFE7119800F096FD0FE09DF847
:102300004000400600280AD5FFE79DF83C00400643
:10231000002804D5FFE7119800F02CFCFFE712B06D
:1023200080BD000080B582B00090009820B9FFE722
:1023300001208DF8070040E00098806908B1FFE7B0
:1023400000E0FFE7009890F8410040B9FFE70099EE
:10235000002081F84000009800F034F8FFE7009971
:10236000242081F8410000980168C86820F40050DA
:10237000C860009800F0C8FC00980168086920F463
:102380009040086100980168486920F02A0048617F
:1023900000980168C86840F40050C86000990020A7
:1023A0004864009A202182F84110009A82F8421075
:1023B000009948638DF80700FFE79DF8070002B019
:1023C00080BD000080B58CB00B9000200A90099071
:1023D000089007900B98006843F60001C4F20101D1
:1023E000884243D1FFE7FFE741F21800C4F2020040
:1023F000016841F480410160006800F4804006906B
:102400000698FFE7FFE741F21800C4F202000168F6
:1024100041F004010160006800F004000590059897
:10242000FFE74FF4007007900220089003200A9005
:1024300040F60000C4F20100019007A90291FDF7E7
:1024400073FF019802994FF4806207920022039271
:1024500008920992FDF768FF039A2520049011461F
:10246000FEF738FB0498FEF72BFBFFE70CB080BDAE
:1024700080B584B002900191ADF80220029890F8E6
:102480004200202817D1FFE7019820B1FFE7BDF8EF
:10249000020020B9FFE701208DF80F000FE002993C
:1024A0000020086302980199BDF8022000F08AFC20
:1024B0008DF80F0003E002208DF80F00FFE79DF874
:1024C0000F0004B080BD000080B582B0019001987B
:1024D000006843F60001C4F20101884207D1FFE71A
:1024E00040F25011C2F2000101200870FFE740F2F3
:1024F0000810C2F2000040F25611C2F2000101229F
:10250000FFF7B6FF02B080BD81B0009001B0704708
:10251000FFE7FEE780B58CB000200B900A90099091
:102520000890FFE741F21800C4F20200016841F090
:1025300020010160006800F0200007900798FFE785
:10254000FFE741F21800C4F20200016841F0040103
:102550000160006800F0040006900698FFE7FFE7BE
:1025600041F21800C4F20200016841F00801016064
:10257000006800F0080005900598FFE740F600406D
:10258000C4F2010003901821019101220292FEF78A
:102590005BF8029903984FF4E042089200220992F6
:1025A0000A9108A90491FDF7BFFE019B029A0398C6
:1025B00004990893099202220A920B92FDF7B4FE45
:1025C0000CB080BD80B582B040F21400C2F20000B1
:1025D000019045F20041C4F20001016048F2A0619F
:1025E000C0F20101416000218160C1604FF480426E
:1025F000026141618161C1610162FEF743F818B176
:10260000FFE7FDF7B7FDFFE702B080BD80B582B000
:1026100040F26800C2F20000019043F20001C4F2EF
:10262000010101604FF48271416000218160C1604D
:10263000016141614FF4007282611022C261016246
:10264000416281620A21C162FEF758FF18B1FFE7BB
:10265000FDF790FDFFE702B080BD000080B588B0B7
:102660000021019107910691059104910391029136
:1026700040F2C000C2F200004FF08042026041F61A
:102680001F42426081606322C260016180218161DA
:10269000FFF76EF818B1FFE7FDF76CFDFFE74FF4A9
:1026A0008050049040F2C000C2F2000004A9FFF77D
:1026B00029F918B1FFE7FDF75DFDFFE70020029063
:1026C000039040F2C000C2F2000002A9FEF7E2FF50
:1026D00018B1FFE7FDF74EFDFFE708B080BD000031
:1026E00080B582B040F20810C2F20000019043F6BB
:1026F0000001C4F2010101604FF4E13141600021A9
:102700008160C16001610C2242618161C161FFF79A
:1027100009FE18B1FFE7FDF72DFDFFE702B080BD10
:10272000FFE7FEE7FFE7FEE788B007900691059216
:10273000079800F0070004900498C0F107000528EE
:1027400003D3FFE70420019004E00498C0F10700E0
:102750000190FFE70198039004980430062803D8FD
:10276000FFE70020009003E0049803380090FFE7A3
:102770000098029006980399012202FA01F10139AA
:102780000840029B984005999A40013A114008433D
:1027900008B070477047000082B00190019840F285
:1027A0000401C2F200010968C90844F6D352C1F21B
:1027B0006202A1FB0221890948430090FFE700BFA4
:1027C000FFE70098411E00910028F8D1FFE702B012
:1027D000704700007047000080B582B000900098FC
:1027E0000138B0F1807F03D3FFE70120019019E0A9
:1027F000009801384EF21401CEF2000108604FF04B
:10280000FF300F2100F084FB4EF21801CEF20001E0
:10281000002008604EF21002CEF200020721116083
:102820000190FFE7019802B080BD000080B5FEF77F
:10283000BBF880BD80B590B006A800902821FDF7B8
:1028400078FC00980023059304930393029301936B
:10285000012206924FF48031079108930A920222D6
:102860000D920E914FF4E0110F91FEF709FB18B194
:10287000FFE7FDF77FFCFFE70F20019002210291A7
:10288000002003904FF480620492059001A8FEF7A7
:1028900043F918B1FFE7FDF76DFCFFE710B080BD0D
:1028A0007047000080B540F2C000C2F20000FFF7A0
:1028B000EFF880BD83B0029001910298006800900B
:1028C000029842F60041C4F20101884215D0FFE7A8
:1028D0000298B0F1804F10D0FFE7029840F200411B
:1028E000C4F20001884208D0FFE7029840F60001D8
:1028F000C4F2000188420AD1FFE7009820F070007E
:10290000009001984168009808430090FFE7029802
:1029100042F60041C4F20101884215D0FFE7029857
:10292000B0F1804F10D0FFE7029840F20041C4F2AE
:102930000001884208D0FFE7029840F60001C4F287
:10294000000188420AD1FFE7009820F4407000900F
:102950000198C168009808430090FFE7009820F0B4
:102960008000019949690843009000980299086025
:10297000019880680299C86201980068029988628B
:10298000029842F60041C4F20101884205D1FFE7F6
:102990000198006902990863FFE7029901204861E4
:1029A00002980069C00730B1FFE70299086920F07A
:1029B00001000861FFE703B07047000085B0049094
:1029C000039102920193049880680090009820F48B
:1029D0007F40009003980299019A41EA0221014345
:1029E00000980843009000980499886005B07047EB
:1029F00083B002900191029880680090009820F0C6
:102A00007000009001980099084340F00700009082
:102A100000980299886003B07047000085B0049068
:102A2000039102920498006A00900499086A20F0C9
:102A300001000862049880690190019820F0F0007C
:102A400001900299019840EA01100190009820F04D
:102A50000A00009003990098084300900198049997
:102A6000886100980499086205B0704785B00490A9
:102A7000039102920498006A00900499086A20F079
:102A800010000862049880690190019820F4704059
:102A900001900299019840EA01300190009820F0DD
:102AA000A00000900399009840EA0110009001985E
:102AB0000499886100980499086205B07047000085
:102AC00080B582B001900198406A00900099002082
:102AD000C8850099C8840098FFF7F0F902B080BD5E
:102AE00084B00390FFE7FFE70398006850E8030F06
:102AF00020F490700290FFE702990398026842E880
:102B000003100028F0D1FFE7FFE7FFE7FFE7039896
:102B1000006850E8050F20F001000190FFE70199DF
:102B20000398026842E805100028F0D1FFE7FFE7AC
:102B30000398006B012814D1FFE7FFE7FFE7039834
:102B4000006850E8030F20F010000090FFE70099A4
:102B50000398026842E803100028F0D1FFE7FFE77E
:102B6000FFE70399202081F84200039900200863C1
:102B700004B0704780B582B0019001980168C868C0
:102B800020F04000C8600199202081F841000198A0
:102B9000FFF7BAFC002002B080BD000080B586B00F
:102BA0000490049890F84200222840F0A480FFE7A7
:102BB00004988068B0F5805F15D1FFE7049800693C
:102BC00088B9FFE7002003900498806A0290049877
:102BD000006840686FF35F20029908800499886A52
:102BE0000230886225E00498806A039000200290F9
:102BF00004988068B0F5805F08D0FFE7049880688B
:102C000050B9FFE70498006930B9FFE704980068FD
:102C100040680399087007E004980068406800F075
:102C20007F0003990870FFE70499886A0130886281
:102C3000FFE70499C88D0138C8850004002856D1E3
:102C4000FFE704980168C86820F02000C860049875
:102C50000168C86820F48070C860049801684869F9
:102C600020F0010048610499202081F84200049975
:102C7000002048630498006B012830D1FFE70499D5
:102C800000200863FFE7FFE70498006850E8030F9F
:102C900020F010000190FFE701990498026842E8D3
:102CA00003100028F0D1FFE7FFE7049800680068F0
:102CB000C00600280ED5FFE7FFE70020009004982B
:102CC00000680068009004980068406800900098D0
:102CD000FFE7FFE70498818DFFF75EF803E00498B3
:102CE000FFF7F2FBFFE700208DF8170007E0002058
:102CF0008DF8170003E002208DF81700FFE79DF81C
:102D0000170006B080BD000080B584B00390039822
:102D10000068006920F44050039A1168D26810439B
:102D20000861039988680A69496910430843029059
:102D300003980068C06841F20C6188430299084317
:102D400003990968C86003980068406920F44070DE
:102D5000039A11689269104348610398006843F62A
:102D60000001C4F20101884204D1FFE7FEF718F820
:102D7000019003E0FEF702F80190FFE701981921A6
:102D80004843039A116852689200B0FBF2FC48F283
:102D90001F52C5F2EB12ACFB02304309642003FB67
:102DA00010CC322000EB0C10A0FB0202F02000EA55
:102DB000521000EB0310C2F343121044886004B0B9
:102DC00080BD000083B002900191ADF8022001980F
:102DD00002998862BDF8020002998885BDF8020058
:102DE0000299C8850299002048640299222081F83E
:102DF00042000298006938B1FFE702980168C8688C
:102E000040F48070C860FFE702980168486940F0AC
:102E10000100486102980168C86840F02000C8605D
:102E2000002003B07047000083B00190019890F833
:102E3000410021283AD1FFE701988068B0F5805F12
:102E400013D1FFE70198006978B9FFE70198006A9C
:102E50000090009800886FF35F200199096848602E
:102E60000199086A0230086208E0019A106A411C60
:102E700011620078019909684860FFE70199C88CE0
:102E80000138C884000468B9FFE701980168C86880
:102E900020F08000C86001980168C86840F04000D8
:102EA000C860FFE700208DF80B0003E002208DF8DA
:102EB0000B00FFE79DF80B0003B0704780B540F2B0
:102EC0000810C2F20000FFF717F880BDFFE7FEE729
:102ED00081B08DF803009DF9030000280ED4FFE7B0
:102EE0009DF9031001F01F02012090404A094EF2A3
:102EF0000011CEF2000141F82200FFE701B0704757
:102F00004EF60C50CEF200000068C0F3022070476D
:102F100082B08DF8070000919DF9070000280AD4BF
:102F2000FFE7009800019DF907104EF20042CEF233
:102F3000000288540BE0009800019DF8071001F092
:102F40000F014EF61452CEF200028854FFE702B091
:102F50007047000083B00290029800F007000090D4
:102F60004EF60C51CEF200010868019001984FF620
:102F7000FF02104001900198009A40EA02200022CE
:102F8000C0F2FA52104301900198086003B07047F4
:102F900080B584B000200390FDF714FDFFF74AFCD4
:102FA000FFF7B8FAFFF70EFBFFF730FBFFF798FBD0
:102FB000FFF754FB40F2C000C2F20000FEF74AFCEB
:102FC00040F20810C2F2000040F25611C2F20001B5
:102FD0000122FFF74DFAFFE740F20000C2F20000C5
:102FE000007801460291032858D80299DFE801F0E1
:102FF00002182D4240F20001C2F2000101200870C7
:1030000040F60040C4F20100082100220192FDF7C1
:103010001BFB019840F21101C2F2000108703DE073
:1030200040F21100C2F20000007868B1FFE740F200
:103030001101C2F200010020087040F20001C2F24A
:10304000000102200870FFE728E040F20001C2F210
:1030500000010320087040F60040C4F2010008217E
:103060000122FDF7F1FA40F21001C2F20001002046
:10307000087013E040F21000C2F20000007860B166
:10308000FFE740F21001C2F200010020087040F298
:103090000001C2F200010870FFE7FFE79CE702E0D1
:1030A00008C8121F08C1002AFAD1704770470020D3
:1030B00001E001C1121F002AFBD17047000000008F
:1030C00000000000010203040607080900000000D8
:1030D0000102030402030405060708090A0B0C0D8C
:1030E0000E0F10100102000008310008000000203F
:1030F000100000009E300008183100081000002069
:1031000050050000AE3000080200000000127A00F6
:083110000100000010000000A6
:04000005080000ED02
:00000001FF
